:020000040800F2
:10000000282700200101000843110008950D000871
:1000100041110008E7010008BB2C000800000000A7
:100020000000000000000000000000005B14000859
:100030009D02000800000000591400085D1400082B
:100040001B0100081B0100081B0100081B01000820
:100050001B0100081B0100081B0100081B01000810
:100060001B0100081B0100081B01000859020008C1
:100070001B0100081B0100081B0100081B010008F0
:100080001B0100081B0100081B0100081B010008E0
:10009000452C00081B0100081B0100081B0100087B
:1000A0001B0100081B0100081B0100081B010008C0
:1000B0001B0100081B010008000000001B010008D4
:1000C0001B01000800000000000000001B010008E8
:1000D000000000001B0100081B01000800000000D8
:1000E0001B0100081B0100081B010008DFF80CD0F1
:1000F00000F03CF800480047FD2C000828270020AD
:100100000648804706480047FEE7FEE7FEE7FEE7B1
:10011000FEE7FEE7FEE7FEE7FEE7FEE7F91400086C
:10012000ED00000840EA01039B0703D009E008C97D
:10013000121F08C0042AFAD203E011F8013B00F8AC
:10014000013B521EF9D27047D2B201E000F8012BF8
:10015000491EFBD270470022F6E710B513460A4647
:1001600004461946FFF7F0FF204610BD064C074D28
:1001700006E0E06840F0010394E807009847103477
:10018000AC42F6D3FFF7B6FF642D0008842D0008BB
:1001900070B58C1810F8015B15F0070301D110F849
:1001A000013B2A1106D110F8012B03E010F8016B76
:1001B00001F8016B5B1EF9D12B0705D40023521EF9
:1001C0000DD401F8013BFAE710F8013BCB1A921C61
:1001D00003E013F8015B01F8015B521EF9D5A1425F
:1001E000D8D3002070BDFEE7002070470020704784
:1001F00010B500220449054801F072FA0449034889
:1002000001F068FA002010BD400F00208801002096
:10021000580B002010B50146034801F05BFA024874
:1002200001F03CFA002010BD88010020094A10B5F9
:10023000D2F8B822D2F814220AB1012010BD0A4621
:100240000146044801F04CFABDE81040014801F0B5
:10025000A5BA00008801002070B50C4C20684FF44E
:100260000065400706D50A48007818B129460948B4
:10027000FFF7DCFF2068800703D529460648FFF713
:10028000D5FF606860F07040606070BD00000240A3
:100290008401002028130020281B0020704770478D
:1002A0000248816802781144816070476000002034
:1002B000074810B5016841F010010160032000F00B
:1002C00075F8002000F006F800F024F8002010BDBA
:1002D0000020024070B50D4D04464FF47A71287825
:1002E000B1FBF0F00A490968B1FBF0F000F03EFD07
:1002F00048B9102C07D200222146501E00F036F8D3
:1003000000206C6070BD012070BD00006000002006
:100310006C0000200C4808B5816941F00101816141
:10032000816901F001010091C16941F08051C16111
:10033000C06900F0805000900448416821F0E061FD
:1003400041F00071416008BD001002400000014012
:10035000002809DB00F01F020121914040098000C4
:1003600000F1E020C0F8001170470000F0B40E4B1F
:100370001B680C46C3F30223C3F10705042D00D903
:100380000425191D072901D2002300E0DB1E0126E8
:1003900006FA05F1491E214099409E40761E1640FE
:1003A0003143F0BC02F08ABC0CED00E0064900F0DD
:1003B000070208684FF6FF03184040EA0220034A8C
:1003C00010430860704700000CED00E00000FA05E3
:1003D00010B50C0607D501F0070101EB810100EB18
:1003E000C100283005E001EB810100EBC10000F500
:1003F000B47099B232B1012202730181190C4181AA
:10040000002010BD00220273C180F9E7704701EBA4
:10041000810200EBC202D0F8E802D26B01F06DBBA2
:1004200001EB810200EBC202D0F8E802D2F87C2195
:1004300001F0C6BB70B504460B0601F0070000EBE7
:10044000800104EBC1014FF001024FF0000503D51C
:1004500081F82920283103E081F8695101F5B47150
:10046000087094F8A802012808D084F8A82220680F
:1004700001F0E6FF84F8A852002070BD022070BD94
:1004800070B5044601F00F006268904201D9012066
:1004900070BD0B0601F0070000EB800104EBC10109
:1004A0004FF001024FF0000503D581F829202831D3
:1004B00003E081F8695101F5B4718D70087094F80A
:1004C000A802012808D084F8A822206802F055F874
:1004D00084F8A852002070BD022070BD2DE9F05FA5
:1004E00004685FEA424C0B788D69B4F850C04FF055
:1004F00000064BF68F7948F2800A48F68F7B48F267
:10050000C00E4FF480672AD54FF0020808EBC308ED
:10051000C44407EB4C07E45BC4F30904A54203D3CE
:100520002D1B8D6101D00BE08E61066836F82350DB
:1005300005EA090585F4005545EA0A0526F8235021
:10054000520609D50D78036833F8252002EA0B021C
:1005500042EA0E0223F8252084B30A8929E04FF0ED
:10056000060808EBC308C44407EB4C07E45BC4F37C
:100570000904A54203D32D1B8D6101D00BE08E61D0
:10058000066836F8235005EA090585F4005545EA62
:100590000A0526F82350520609D40B78056835F869
:1005A000232002EA0B0242EA0E0225F823202CB196
:1005B0004A8949690068234602F04EFB2046BDE89F
:1005C000F09F2DE9F05F054600680C465FEA426C3B
:1005D00016468B692278B0F850C048F68F774CF2F7
:1005E00080094FF6FF7B4FF4004E4FF4806A4FF0C6
:1005F00000017BD54FF0020808EBC208E0440AEB8B
:10060000480C30F80C00C0F30900834211D91B1AC2
:10061000A3610FD0730407D52E6836F822303B4013
:1006200043EA090326F8223094F82420012A50D006
:100630004EE1A161607810B1012813D01AE028685A
:10064000B0F85030184400EB0210B0F8042422F443
:10065000F842A0F80424B0F8042442F40042A0F8C0
:10066000042407E02868B0F85030184400EB02106A
:10067000A0F804146278286812B1012A11D018E099
:10068000B0F850100844217800EB0110B0F80C14B9
:1006900021F4F841A0F80C14B0F80C1441F4004116
:1006A00005E0B0F850201044227800EB0210A0F8CA
:1006B0000C1421782846FFF7AAFE7004B8D52178DB
:1006C0002A6832F82100384040EA090022F8210067
:1006D000FEE0626902446261E2690244E261236908
:1006E000226A9A4203D31846111A04E038E084F8CB
:1006F00024100AB110462162617811B1012923D07A
:100700002BE02968B1F850201144227801EB021146
:1007100001F2044148B13E280FD84208C30700D077
:10072000521C0BEA82220A8017E00A8822F4F8425F
:100730000A800A8842F40042F5E74209C30600D164
:10074000521E4EEA8222EEE72968B1F85020114489
:10075000227801EB0211A1F8040483B22289B3E0EC
:100760004FF0060808EBC208E0440AEB480C30F8EA
:100770000C00C0F30900834211D31B1AA3610FD0F0
:10078000730407D42E6836F822303B4043EA09034D
:1007900026F8223094F82420012A50D098E0A16154
:1007A000607810B1012813D01AE02868B0F85030F2
:1007B000184400EB0210B0F8042422F4F842A0F828
:1007C0000424B0F8042442F40042A0F8042407E012
:1007D0002868B0F85030184400EB0210A0F8041458
:1007E0006278286812B1012A11D018E0B0F85010D0
:1007F0000844217800EB0110B0F80C1421F4F84102
:10080000A0F80C14B0F80C1441F4004105E0B0F865
:1008100050201044227800EB0210A0F80C1421782C
:100820002846FFF7F4FD700452D42278296831F885
:100830002200384040EA090021F8220048E06269BD
:1008400002446261E2690244E2612369226A9A42D7
:1008500003D31846111A216204E00AB1104621623E
:1008600084F824106278296812B1012A22D029E084
:10087000B1F850201144227801EB021101F20C4131
:1008800048B13E280FD84208C30700D0521C0BEADB
:1008900082220A8016E00A8822F4F8420A800A8836
:1008A00042F40042F5E74209C30600D1521E4EEA67
:1008B0008222EEE7B1F850201144227801EB0211B8
:1008C000A1F80C04628983B26169286802F0E2F938
:1008D00021782A6832F8210048F6BF73184080F06A
:1008E000300048F28003184322F821000020BDE8C0
:1008F000F09F01F0070101EB810100EBC100D0F88E
:10090000840170472DE9F04104460F0601F007000D
:1009100000EB800104EBC1014FF001064FF0000530
:1009200003D581F82960283103E081F8695101F588
:10093000B47108700A61CB704A7802B1C881022B89
:1009400000D10D7194F8A802012809D084F8A8629A
:10095000206801F047FC284684F8A852BDE8F081E1
:100960000220FBE770B50C4601F0070505EB850199
:1009700000EBC101C1E95F230022C1F8842181F8A5
:10098000692181F8685101F5B4716207006801F0CE
:1009900049FE002070BD70B504460D4601F0070009
:1009A0006168884201D9012070BD29064FF0000618
:1009B0004FF0010207D500EB800104EBC10181F883
:1009C0002920283107E005EB850104EBC10181F8FE
:1009D000696101F5B4718A70087094F8A802012861
:1009E00007D084F8A822206801F003FE680702D02F
:1009F00006E0022070BD04F52C71206801F0BBFDFB
:100A000084F8A862002070BD70B50C4601F007059F
:100A100005EB850100EBC101C1E90F23012281F83B
:100A20004C208B6400234B6481F8292001F8285F57
:100A30006207006801F0F6FD002070BD1FB5044696
:100A4000006802F005F9000402D5204600F07AFBA8
:100A5000206802F0FDF840050CD5206830F8441FEE
:100A600021F480610180204600F01EF9002120461B
:100A700000F035F9206802F0EBF8400405D5206855
:100A800030F8441F21F480410180206802F0E0F832
:100A9000800405D5206830F8441F21F400510180FE
:100AA000206802F0D5F8C00414D5206830F8401F43
:100AB00021F004010180206830F8401F21F0080176
:100AC0000180204600F003F9206830F8441F21F42B
:100AD00080510180206802F0BBF800053ED52268F5
:100AE0000020694632F8203021F81030401CC0B296
:100AF0000828F7D332F8400F40F00100108020683A
:100B000030F8402F22F0010202802068B0F8442023
:100B10005205FBD530F8442F22F480620280002079
:100B2000236831F8102023F82020401CC0B2082888
:100B3000F6D3206830F8401F41F00801018020689A
:100B400030F8441F21F400610180206830F8401F14
:100B500041F004010180204600F0F6F8206802F020
:100B600077F8800508D5206830F8441F21F400711B
:100B70000180204600F0AFF8206802F069F8C00557
:100B800005D5206830F8441F21F4807101801FBD15
:100B90002DE9F04186B0040004D094F8A9020025A4
:100BA00020B108E0012006B0BDE8F08184F8A85229
:100BB000204600F05BF8032084F8A902206801F0C9
:100BC000D3FC04F11001142288466846FFF7AAFA04
:100BD00094E80F0001F032FC0226D0BB002120680F
:100BE00002F050F8002001270FE000BF00EB800169
:100BF00004EBC10181F8297001F8280FC881CD707C
:100C00000D614D61401CC0B28D6161688142EDD8BB
:100C1000002011E000EB800104EBC10181F8695173
:100C200081F8680181F86B51C1F87851C1F87C51A5
:100C3000401CC0B2C1F8805161688142EAD81422D8
:100C400041466846FFF76EFA94E80F0001F083FC16
:100C500010B184F8A962A5E784F8245084F8A97239
:100C6000206801F076FC00209DE7000008B50068D0
:100C70000B49884212D10B48C16941F40001C1619E
:100C8000C069002200F40000009011461420FFF714
:100C90006DFBBDE808401420FFF75ABB08BD0000FB
:100CA000005C00400010024070B5044680680125D9
:100CB000022801D0FFF7F3FA2946D4F8E80201F040
:100CC00068F8D4F8E802BDE8704001F024B8D0F824
:100CD000E80201F048B8D0F8E80201F04EB810B5CB
:100CE000044690F8A80201280BD0012084F8A8023D
:100CF00084F82410206801F0C7FF002084F8A802BF
:100D000010BD022010BDD0F8E82200F52C7110466D
:100D100001F04BB810B5044690F8A802012810D095
:100D2000012084F8A802206801F082FF01212046FA
:100D3000FFF76CFB206801F00AFC002084F8A80291
:100D400010BD022010BD000010B50446D0F8E80226
:100D500001F06AF8A069002804D00348016841F056
:100D60000601016010BD000010ED00E010B5401E4E
:100D7000B0F1807F01D3012010BD4FF0E02460610D
:100D80000F21601701F09AFF0020A0610720206169
:100D9000002010BDFEE700001E48816941F400718B
:100DA00081611D48016841F0040101600168C907C3
:100DB000FCD1016821F0010101601749091F0A688F
:100DC00022F480720A60016821F00201016001686A
:100DD00041F480110160016821F460210160016823
:100DE00041F400610160016841F4807101600A4AC8
:100DF000002124321160084A01212C321160064979
:100E0000091D0A6842F008020A60016841F0010108
:100E10000160704700100240082401401C484169ED
:100E200041F0010141611C481A4901611B494161BE
:100E3000816821F010018160C114C160826822F0D4
:100E400040028260826842F080028260826842F4DE
:100E500080728260826842F480628260826842F4BA
:100E600040528260826842F020028260826842F0D2
:100E700004028260826842F0020282604FF0E02247
:100E8000C2F80011816841F00101816070470000E3
:100E9000001002404C2401400000024028130020B2
:100EA0001948816941F4006181611848016821F0A5
:100EB00007010160154909202031086013484821C5
:100EC00024300160006811492C3108600F48001F70
:100ED000016841F0400101600C481030016841F0A8
:100EE0007001016009481830016841F0010101609A
:100EF00006483C30016841F400410160034901208B
:100F0000083908607047000000100240082C0140BA
:100F1000F0B500230A24302537261F4611E000BF14
:100F2000B4EB107F02D905EB107C01E006EB107CDE
:100F300001F813C001EB430C00015B1C8CF801703D
:100F4000DBB29342ECD3F0BD044908B58A69024391
:100F50008A6189690140009108BD000000100240CB
:100F6000F0B50A68C2F30F2595FAA5F2B2FA82F33A
:100F700069E001229A402A4264D0082B03D240F251
:100F800001129A4006E0A3F108024FF001149440C8
:100F900044F080624C68082C0BD10C69C668170AB3
:100FA00097FAA7F7B7FA87F726EA1226BC40264336
:100FB000C66092FAA2F700EB1264B7FA87F74FEA1D
:100FC000870C0F27266807FA0CF7BE4392FAA2F7A0
:100FD000D1F804E0B7FA87F7BF000EFA07FE46EA39
:100FE0000E0626604F68012F01D0092F2AD192FAF0
:100FF000A2F7B7FA87F74FEA870C032707FA0CF72F
:10100000BE4392FAA2F7B7FA87F7D1F808E0BF001B
:101010000EFA07FE92FAA2FC46EA0E06BCFA8CFC17
:101020004FEA8C0E4FF0040C26600CFA0EFC92FA7C
:10103000A2F2B2FA82F2CF68920026EA0C0697403A
:101040003E4326605B1C35FA03F292D10020F0BDCE
:1010500001490860704700006C00002008B54FF09F
:10106000E0210A690092421C00D0401C0A69D203A8
:1010700000D5401E0028F9D108BD00002DE9F0413F
:1010800086B014216846FFF766F81020FFF75CFF72
:101090002020FFF759FF0420FFF756FF10480F49A3
:1010A0004FF400524261104CDFF8388048F20802D9
:1010B00062610125022600278DE8E2006946FFF7FC
:1010C0004FFF01AACDF8008082E8E0006946204683
:1010D000FFF746FF06B0BDE8F081000020002004C5
:1010E00000100140880880040008014010B500226B
:1010F0000F49104800F0DAFC08B1FFF7D0F80E49AC
:101100000C4800F0B7FE08B1FFF7C9F80B490948D1
:1011100000F0D8FA08B1FFF7C2F8064800F000FF67
:10112000002803D0BDE81040FFF7B9B810BD00009B
:1011300000000020880100204C0100205000002009
:10114000FEE770472DE9F84F044640F68F7B48F6DE
:101150000F7A4FF002094FF4806874E1B0F8441040
:1011600011F00F063AD030F8267039047DD530F8EA
:10117000261001EA0B0141F0800120F8261006EB51
:10118000860004EBC00595F8740105F5B4750028D8
:101190006CD0E87802286AD02878226832F82010CB
:1011A00048F68F73194048F2C003194322F8201003
:1011B0002878D4F800C03CF82010BCF8502049042E
:1011C0007ED509EBC000111808EB41003CF8000087
:1011D0008005800D009074D02A89D8E0C9062DD4EE
:1011E000018801EA0A0141F400410180216804F10B
:1011F0002805B1F850202B7809EBC300024408EB16
:101200004200085AC0F309006064E16B0844E063DF
:1012100000212046FFF7FBF894F8240000289CD01A
:10122000A869002899D194F82400216840F0800032
:10123000A1F84C00002084F8240004E1018804F5A2
:10124000B4750A0521D5B0F850202B78062101EBA2
:10125000C3010A4408EB4201405A04F52C71C0F363
:101260000903EB61EA88206802E0ACE068E07AE01C
:1012700001F0F2FC2168088800EA0B0040F08000D1
:1012800008802046FFF73FFDDDE00904D5D5018841
:1012900001EA0B0141F0800101802068B0F8502084
:1012A0002B78062101EBC3010A4408EB4201405AA6
:1012B00083059B0DEB6110D0696971B1EA8801E08B
:1012C00058E056E0206801F0C7FCE9696869084405
:1012D000686100212046FFF7A3F82068018809050E
:1012E0002DD4B0F850100844296900F20C4051B1D7
:1012F0003E2910D84A08C90700D0521C4FF6FF718A
:1013000001EA82210FE0018821F4F841018001887F
:1013100041F4004107E04A09C90600D1521E4FF4CA
:10132000004141EA82210180206801884BF68F72DA
:10133000114081F4405148F280021143018082E063
:10134000D4F800C0BCF850102A78062000EBC20088
:10135000014408EB41003CF800008005800D00903E
:101360001AD0EA8813E03A4629462046FFF7B6F835
:10137000009011E0062101EBC000111808EB4100BC
:101380003CF800008005800D009005D06A89034676
:101390006046696901F060FCE96900980844E86109
:1013A0006969009808446861A86918B129690098BA
:1013B000814204D929782046FFF732F803E0294614
:1013C000206801F02FF938063DD506EB860004EBC6
:1013D000C001206830F8262002EA0A0242F40042E6
:1013E00020F8262091F82B002831032804D018B1CA
:1013F000022824D1F80522D42368B3F850200D78B0
:1014000009EBC500024408EB4200185A8A69C0F390
:10141000090082420CD9121A8A610BD04A6902442F
:101420004A61CA691044C861206801F0FBF80AE00B
:1014300000208861E9B22046FEF7E9FF03E03A4662
:101440002046FFF7BEF82068B0F8441009043FF5C5
:1014500085AE0020BDE8F88F70477047FEF720BFCB
:10146000224810B5016821F0070141F00201016036
:1014700000681F4C206840F4803020602068C0F372
:1014800040400028FAD0606820F47C1040F4E81056
:101490006060206840F0807020602068C0F3406089
:1014A0000028FAD0606820F0F0006060606820F4E6
:1014B000E06040F480606060606820F460506060CC
:1014C000606820F0030040F002006060606800F097
:1014D0000C000828FAD10748FFF7BAFD0020FEF7F4
:1014E000F9FE606820F48000606010BD00200240BA
:1014F0000010024000A24A0470472DE9F041D0F8E4
:10150000C032D0F8B822CAB101EB810500EB8504E6
:101510000026E7693FB103EBC5039B6BB7FBF3F50F
:1015200003FB157323B1C2F814620020BDE8F081FB
:1015300000231A46E66100F080FCF6E70220F5E79A
:1015400070B50546D0F8B84200F07BFBC4F80C0239
:10155000D5F8B80248B1D5F8BC12D4F80402CA686C
:1015600004F503719047002070BD022070BD70B576
:1015700004460026812100F0B7FA0025012120460B
:10158000E56200F0B1FA82212046C4F86C5100F007
:10159000ABFA2564D4F8B80248B1D4F8BC0204F51B
:1015A0002E7440688047206800F017FE25603046A2
:1015B00070BD10B5D0E9AE4159B194F80002FF28D2
:1015C00007D08B6894F8012221469847FF2084F8C1
:1015D0000002002010BD00000A2101800048704771
:1015E000740000204321018000487047C40000209F
:1015F0004321018000487047800000204321018082
:1016000000487047080100202DE9F04104460026FB
:10161000007C4FF40077012590B340230222812102
:10162000204600F063FB4023E562022201212046B0
:1016300000F05CFB0823032282212046C4F86C5191
:1016400000F054FB4FF40770256400F0C7FDC4F8A8
:10165000B802F8B10546D4F8BC0200688047002003
:10166000C5F81402C5F81802207CD5F8042298B1F8
:1016700040230121204600F045FB3046BDE8F081C3
:10168000FFE73B4602228121204600F02FFB3B462C
:10169000E562CAE70126F0E73B46EAE710B5D0F875
:1016A000B81269B1027C002AD1F8042205D0402387
:1016B000012100F027FB002010BD4FF40073F7E775
:1016C000022010BD02460220002902D00020C2F8EC
:1016D000BC127047D0F8B802C0F80412002070475E
:1016E000D0F8B802C0F81022C0F8081200207047E5
:1016F0002DE9FC410546D0F8B87200208DF80000B5
:10170000ADF80400064608780C4610F0600121D0C0
:1017100020293BD1E288AAB10006607807D5D5F828
:10172000BC128B6839469847E288394626E087F82C
:101730000002A07987F80102E2883946284600F0C5
:101740006AF828E0D5F8BC12607800228B68214640
:10175000984720E0607820B10A2809D00B2815D1DD
:1017600010E095F89C02032810D1022201A905E09F
:1017700095F89C02032809D101226946284600F009
:1017800064F808E095F89C02032804D02146284616
:1017900000F036F802263046BDE8FC8110B5D0F8DE
:1017A000B812A1B1D1F814220AB1012010BD012252
:1017B000C1F81422D1F810220263B1F8102293B2BA
:1017C000D1F80822812100F038FB002010BD022052
:1017D00010BD10B5D0F8B42252689047002010BD5B
:1017E000134610B50A46002100F08CFA002010BD07
:1017F000134610B50A46002100F01FFB002010BD63
:1018000010B50446802100F0FDFA2046BDE81040E6
:10181000002100F0F7BA10B50323C0F85C21C0F82E
:101820009432C0F8602113460A46002100F06AFA9B
:10183000002010BD10B505210023C0F894121A46EF
:10184000194600F05FFA002010BD10B50223C261F6
:10185000C0F89432026213460A46002100F0EDFA05
:10186000002010BD10B504210023C0F894121A46C0
:10187000194600F0E2FA002010BD000010B50A463B
:10188000024903A000F0E2F8004810BD580900200A
:1018900043444320436F6E6669670000122008804E
:1018A000004870472000002010B50A46024903A0F6
:1018B00000F0CCF8004810BD5809002043444320F4
:1018C000496E7465726661636500000004200880DB
:1018D000004870471C00002010B50A46024903A0CA
:1018E00000F0B4F8004810BD5809002053544D6969
:1018F00063726F656C656374726F6E696373000009
:1019000010B50A46024903A000F0A0F8004810BD37
:101910005809002053544D33322056697274756152
:101920006C20436F6D506F727400000010B51A2068
:1019300008800A480168001D0468001D0068081836
:1019400009D008220649FFF7E3FA054904221031BD
:101950002046FFF7DDFA0248801E10BDE8F7FF1FA2
:1019600036000020F8B504460020ADF80000488895
:101970000D46010A082948D2DFE801F0470409179B
:1019800047473C45D4F8B012207C0A6819E0207C17
:1019900002260028D4F8B40205D0C16A68468847F8
:1019A000014646703EE0816AF8E7C0B206282CD2B4
:1019B000DFE800F0030A1014181CD4F8B0024268E3
:1019C00005E0694690471CE0D4F8B0028268E2B1B5
:1019D000207CF6E7D4F8B002C268F8E7D4F8B00289
:1019E0000269F4E7D4F8B0024269F0E7D4F8B00233
:1019F0008269ECE7207C40B9D4F8B402416B6846B8
:101A0000884701460EE0207C20B129462046FFF79A
:101A1000F7FEF8BDD4F8B402016B6846884701466A
:101A200007204870BDF8000048B1EA8852B18242F0
:101A300000D90246ADF800202046FFF706FFE888EF
:101A40000028E6D12046FFF70DFFF8BD70B5002352
:101A500000281ED00446002502E06D1CEDB2641C77
:101A60002678002EF9D1022404EB45041480127864
:101A7000CA545B1C0322CA5400245B1C06E0CA54EF
:101A80005B1CDAB28C54521CD3B2401C0278002A80
:101A9000F5D170BD01004FF0000004D0012901D044
:101AA000022901D0022070470120704710B580B193
:101AB000D0F8B43213B10023C0F8B43209B1C0F881
:101AC000B012012180F89C12027000F0BFF80020D3
:101AD00010BD022010BD10B5D0F8C002FEF7D0FC3A
:101AE000BDE81040FFF7D6BF10B5D0F8C002FEF732
:101AF000A1FCBDE81040FFF7CDBF2DE9F04117462E
:101B0000044651B1D4F8B40242691AB194F89C0267
:101B1000032851D00220BDE8F081D4F8943200258A
:101B200004F11400022B03D0042B3AD0C3B33CE0E1
:101B3000D0E903639E4207D9F11AC1608AB23946DF
:101B40002046FFF755FE12E08068B0FBF3F103FB7F
:101B5000110199B9984211D3D4F8981288420DD244
:101B6000002211462046FFF743FEC4F89852002396
:101B70001A461946204600F0C5F816E0D4F8B4021B
:101B8000C16829B194F89C02032801D120468847F6
:101B90008021204600F036F92046FFF74BFE04E096
:101BA000FFE78021204600F02DF994F8A0020128DB
:101BB00004D184F8A05201E0204690470020AAE713
:101BC00070B51546044649B1D4F8B40282691AB119
:101BD00094F89C02032830D0022070BDD4F89412EF
:101BE00004F5AA70032902D005291ED027E0D0E908
:101BF00003218A420BD9531AC3600846834200D39B
:101C000003469AB229462046FFF7EAFD17E0D4F8CA
:101C1000B402016929B194F89C02032801D120463D
:101C200088472046FFF71EFE09E000200146C4F861
:101C30009402204600F0E6F801E02046904700209C
:101C400070BDD0F8C002FEF754BE000010B50446C7
:101C50001C481D49C0F8E842C4F8C00201600821D0
:101C600041600221816000218161C1610162FEF752
:101C70008FFF08B1FEF713FB0022D4F8C00218232F
:101C8000114604F53074FEF7A3FB5823002280218F
:101C90002068FEF79DFBC023002281212068FEF70B
:101CA00097FB4FF48873002201212068FEF790FB18
:101CB0004FF48073002282212068FEF789FB002008
:101CC00010BD00006C060020005C00400A0601F018
:101CD0007F01D0F8C00201EB810100EBC10002D509
:101CE00090F82A00704790F86A01704710B51C46BA
:101CF0001346D0F8C0022246FEF704FEBDE81040AD
:101D0000FFF7C8BE10B5D0F8C002FEF72BFEBDE845
:101D10001040FFF7BFBE70B50022044640231146B5
:101D2000FFF7E4FF40260125C4F864613346002232
:101D300080212046C4F85851FFF7D8FF6662A5619C
:101D400084F89C520020C4F894026060C4F8A40295
:101D5000D4F8B80228B1D4F8B40200214268204671
:101D60009047002070BD90F89C12042903D190F890
:101D70009D1280F89C120020704710B590F89C12BC
:101D8000032904D1D0F8B412C96901B188470020F1
:101D900010BD01740020704710B5D0F8C002FEF7E6
:101DA0009EFFBDE81040FFF775BE70B5044600F514
:101DB0002A70054600F04AF80120C4F89402B4F8ED
:101DC000AE02C4F8980294F8A80210F01F010AD0DD
:101DD00001290DD0022910D000F08001204600F02A
:101DE00011F8002070BD2946204600F09EF8F8E763
:101DF0002946204600F0CAF9F3E72946204600F0BC
:101E00001DF9EEE710B5D0F8C002FEF7C4FDBDE83D
:101E10001040FFF73FBE10B5D0F8C002FEF77AFFC2
:101E2000BDE81040FFF736BE90F89C1280F89D1276
:101E3000042180F89C120020704710B5D0F8C00231
:101E4000FEF7E2FDBDE81040FFF724BE0A780270FD
:101E50004A7842708A78CB7802EB032242800A7972
:101E60004B7902EB032282808A79C97902EB012146
:101E7000C18070470246002011B1C2F8B412704709
:101E80000220704710B5D0F8B42202241AB11268AB
:101E9000904700B90024204610BD000070B50E46E2
:101EA0001E4D897804462970012931D894F89C0286
:101EB00002280BD003280FD031462046FFF7A0FCA4
:101EC00029782046BDE87040FFF783BCD9B10320D4
:101ED000616084F89C0209E071B16068884212D0A8
:101EE000C1B22046FFF775FC297861602046FFF7F4
:101EF000C9FF02280CD006E0022084F89C0220468C
:101F00006160FFF766FC2046BDE87040FFF7AABCA1
:101F100031462046BDE87040FFF772BC70000020DB
:101F200010B5FFF778FF002010BD2DE9F0410A78C9
:101F3000002612F0600208D0202A01D0402A70D179
:101F4000D0F8B422926890476DE04B7800220125CA
:101F50000A2B66D2DFE803F0405D6557650805652A
:101F60002C29FFF7FFFC5EE004468888D8B9C888B2
:101F7000C8B94888802816D200F07F0794F89C02E0
:101F8000032810D084F89E7239462046FFF704FFDC
:101F90002046FFF767FC1FB1022084F89C0242E054
:101FA00084F89C523FE020463BE0FFF777FF3AE0A1
:101FB000CB88012B35D190F89C32012B04D0022B19
:101FC00002D0032B2DD104E08260012200F1080130
:101FD00016E00122011D13E090F89C22012A03D093
:101FE000022A01D0032A1CD1CA88022A19D1C5604D
:101FF000D0F8A41209B10321C160022200F10C0142
:10200000FFF723FC0FE0498801290CD1C0F8A45246
:1020100011E090F89C32012B08D0022B06D0032B44
:1020200004D0FFF7EDFB3046BDE8F0814988012977
:10203000F9D1C0F8A422FFF715FCF4E72DE9F0412F
:102040000A46044610780027097910F060030AD088
:10205000202B01D0402B50D1D4F8B4021146836814
:10206000204698478FE0C0F34110012806D05078F1
:10207000D0B301282AD003283FD107E0D4F8B40216
:10208000114683682046BDE8F041184794F89C0249
:10209000022802D0032872D10AE071B380296ED0E1
:1020A0002046FFF7AFFE80212046FFF7ABFE6AE037
:1020B000508838B931B1802904D0D08810B9204671
:1020C000FFF7A0FE2046FFF7CDFB5CE094F89C02F2
:1020D0000228E2D0032852D1508898BB4806F1D09C
:1020E0002046FFF7F8FCEDE7FFE794F89C02002696
:1020F000022803D0032842D112E040E009B1802930
:102100003DD1080601F07F0000EB800004EB800168
:1021100001D5143101E001F5AA7102220E602AE016
:10212000080601F00F0000EB800004EB80000AD5E8
:10213000806920B301F07F0000EB800004EB800594
:1021400014350BE01FE0D0F85801C0B101F07F005A
:1021500000EB800004EB800505F5AA7541B18029EC
:1021600006D02046FFF7B2FD10B10120286000E044
:102170002E60022229462046FFF767FB03E0114646
:102180002046FFF73DFB3846BDE8F08170B50546B7
:1021900008780C4610F0600003D0202801D04028B9
:1021A00016D195F89C02012803D0022801D00328FB
:1021B0000ED1207901280BD8D5F8B40282682846C0
:1021C0009047E188014306D12846FFF74BFB02E028
:1021D0002846FFF715FB002070BD70470048704788
:1021E0004C0400202DE9F0470C78002630F824300C
:1021F00048F68F121340CA78002A7DD0012A7CD07D
:10220000022A02D0032A7FD0012648F2800213431B
:1022100020F824300D7830F8254048F68F731C40A4
:102220002C43144320F825400D7B48F2C00C48F69F
:10223000BF744CF280074BF68F79EDB391F80080B4
:10224000C24630F8285048F280181D4045EA08057B
:1022500020F82A50B0F8505091F80080054405EB62
:102260000815B1F8088028F00108A5F80084B0F836
:10227000505091F80080054405EB0815B1F80A802C
:1022800028F00108A5F808844D78002D0D7830F865
:1022900025804FEA48487DD0B8F1000F07DA30F8C2
:1022A000258008EA030848EA070820F825800F7807
:1022B00030F827506D0600E02CE006D530F82750A6
:1022C0001D4045EA0C0520F82750CB780D78012BEE
:1022D00030F8253003EA040301D083F020031343D0
:1022E00020F825300B7830F8231001EA090111435A
:1022F00020F82310304602E003E008E004E0BDE8E7
:10230000F08743F4007380E743F4C0637DE743F450
:1023100080637AE74D782DB3B0F850500F780544BC
:1023200005EB0715CF8827F00107A5F800740F7893
:1023300030F827506D0606D530F827501D4045EA85
:102340000C0520F82750CB78012B06D00B7830F8FD
:102350002310214081F02001C9E70B7830F82310C9
:102360002140C4E7B0F850400D78044404EB051454
:10237000CD8825F00105A4F80854B0F850400D7838
:10238000044404EB05140D6904F20C4475B13E2DB0
:1023900014D800E030E04FEA550CED0701D00CF105
:1023A000010C4FF6FF7505EA8C2511E0258825F410
:1023B000F8452580258845F4004509E04FEA551C7D
:1023C000ED0601D1ACF1010C4FF4004545EA8C2536
:1023D00025800D7830F82540640405D530F8254077
:1023E0001C403C4320F825400B7830F8231001EACC
:1023F000090181F440517AE7B8F1000F07DA30F8AB
:10240000258008EA030848EA070820F825800F78A5
:1024100030F827506D0606D530F827501D4045EAA4
:102420000C0520F827500D7830F8253003EA090311
:1024300083F44053134320F825308EE70020704783
:102440002DE9F04391F80C804F780A7848F6BF7C6C
:102450004BF68F7948F2800348F2C0054CF28006B3
:1024600048F68F74B8F1000F28D0002F30F8227092
:102470004FEA474748D0002F05DA30F8227027404E
:10248000374320F822700A7830F822707F0605D58D
:1024900030F8227027402F4320F822700D7830F852
:1024A00025202240324320F825200C7830F82420C3
:1024B00002EA0C021A4320F824201AE07FB130F817
:1024C0002260760605D530F8226026402E4320F89B
:1024D00022600A7830F8221001EA0C010EE030F890
:1024E00022506D0405D530F822502540354320F8A0
:1024F00022500A7830F8221001EA0901194320F825
:1025000022100020BDE8F083002F05DA30F8227099
:102510002740374320F822700A7830F82260760688
:1025200005D530F8226026402E4320F822600E7830
:1025300030F8262022402A4320F826200C7830F854
:10254000242002EA09021A4320F82420C1E70020CF
:10255000704700207047012120F8401F00210180B2
:10256000818001820846704730F8401F21F43F41C6
:102570000180002070470020704730B50A7BB2BB55
:102580004A7848F68F7548F28004C2B10B7830F86B
:102590002320520607D530F823202A4048F2C005F0
:1025A0002A4320F82320CA78012A20D00A7830F85C
:1025B000221048F6BF73194081F0200114E00A7818
:1025C00030F822305B0407D530F822302B404CF233
:1025D00080052B4320F822300A7830F822104BF681
:1025E0008F73194081F44051214320F822100020BC
:1025F00030BD10B54A780978002A48F2800330F8D7
:10260000212005D048F6BF74224082F0100204E079
:102610004BF68F74224082F480521A4320F8212016
:10262000002010BD2DE9F0470E464B78097B04468B
:102630004FF0000948F68F7248F2800A4FF6FF7794
:102640004FF40048012B09D000296ED0F078022801
:102650006CD001286BD00120BDE8F087B5693069E6
:10266000854200D90546C9B1F17848F280130229A4
:1026700023D0317834F821001040184324F8210089
:10268000306A401B3062307834F820104906717887
:102690007ED500297DD001297CD03FE1ABB2F28804
:1026A0002046716900F0F6FAB4F850003178204401
:1026B00000EB0110A0F80454EAE0316A81426AD9C3
:1026C000317834F821001040184324F82100306A92
:1026D000401B3062307834F82010490671786CD590
:1026E00011B1012924D02AE0B4F85010214401EBA3
:1026F000001000F20C404DB13E2D0FD86908EA07DA
:1027000000D0491C07EA8121018018E0018821F4EA
:10271000F8410180018841F40041F5E76909EA06C2
:1027200000D1491E48EA8121EEE79CE1BCE126E2A6
:10273000B4F85020111901EB0010A0F80C54728964
:10274000ABB22046716900F0A5FA70692844706147
:102750003169306A884202D9401B306202E0054686
:10276000C6F82090707800287CD1B4F850003178F9
:10277000204400EB011000F204406DB13E2D13D84F
:102780006908EA0700D0491C07EA8121018012E0AC
:1027900001E19BE0BBE084E0018821F4F841018085
:1027A000018841F40041F1E76909EA0600D1491EB8
:1027B00048EA8121EAE7328965E011B1012921D097
:1027C00027E0B4F85010214401EB001000F204405F
:1027D0004DB13E2D0FD86908EA0700D0491C07EA21
:1027E0008121018015E0018821F4F84101800188F0
:1027F00041F40041F5E76909EA0600D1491E48EABB
:102800008121EEE7B4F85010214401EB0010A0F84C
:1028100004543289ABB22046716900F03BFA70690A
:10282000284470613169306A884202D9401B3062A5
:1028300002E00546C6F82090707800287ED1B4F8F2
:1028400050003178204400EB011000F20C4055B1EB
:102850003E2D10D86908EA0700D0491C07EA8121FB
:1028600001800FE072E0018821F4F84101800188C5
:1028700041F40041F4E76909EA0600D1491E48EA3B
:102880008121EDE77289ABB22046716900F002FA4E
:10289000317834F8210048F6BF72104080F03000E3
:1028A000C0E1327834F8220048F68F63184040EADD
:1028B0000A0024F82200B4F850003278204400EBDB
:1028C00002108BB2A0F804343289DDE7B4F850105E
:1028D000214401EB001000F20C404DB13E2D0FD809
:1028E0006908EA0700D0491C07EA8121018015E048
:1028F000018821F4F8410180018841F40041F5E7A5
:102900006909EA0600D1491E48EA8121EEE7B4F8D8
:102910005020111901EB0010A0F80C547289ABB2D1
:102920002046716900F0B6F9706928447061316918
:10293000306A884203D9401B306203E06EE00546EE
:10294000C6F82090002DA3D0707858B101287FF4EC
:102950001EAFB4F850003178204400EB0110A0F80D
:10296000045428E7B4F850003178204400EB0111FA
:1029700001F204413E2D06D86808EA0700D0401C49
:1029800007EA802005E06809EA0600D1401E48EA0F
:10299000802008800FE711B1012921D027E0B4F889
:1029A0005010214401EB001000F204404DB13E2DC7
:1029B0000FD86908EA0700D0491C07EA8121018085
:1029C00015E0018821F4F8410180018841F40041BB
:1029D000F5E76909EA0600D1491E48EA8121EEE7D8
:1029E000B4F85010214401EB0010A0F804543289CF
:1029F000ABB22046716900F04DF9706928447061EE
:102A00003169306A884202D9401B306202E00546D3
:102A1000C6F82090002D96D0707858B101287FF428
:102A200020AFB4F850100819317800EB0110A0F86D
:102A30000C5427E7B4F850003178204400EB011122
:102A400001F20C413E2D06D86808EA0700D0401C70
:102A500007EA802005E06809EA0600D1401E48EA3E
:102A6000802008800EE7B1693069814202D9091AD5
:102A7000B161B5E00846C6F81890B1E0088820F4C6
:102A8000F8400880088840F400400BE03E2875D8E4
:102A90004208C00700D0521C07EA822002E000BFB3
:102AA00048EA82200880B5E093B9B4F85000317844
:102AB000204400EB0110316900F2044069B13E2965
:102AC00013D84B08C90700D05B1C07EA832101809B
:102AD000707888B1012832D03AE0018821F4F841B9
:102AE0000180018841F40041F1E74B09C90600D19A
:102AF0005B1E48EA8321EAE7B4F8500031782044AD
:102B000000EB0110316900F20C4049B13E290FD8A9
:102B10004B08C90700D05B1C07EA8321018017E03E
:102B2000018821F4F8410180018841F40041F5E772
:102B30004B09C90600D15B1E48EA8321EEE7B4F8D1
:102B400050100819317800EB0110318AA0F80C14EC
:102B5000F069A8B3317834F82100430401D5430665
:102B600003D444F24003184254D134F821001040F9
:102B700048F2C002104324F821004BE03CE0B16968
:102B80003069814202D9091AB16102E00846C6F8EB
:102B900018908BB9B4F850103278214401EB02112F
:102BA00001F2044168B13E2813D84208C30700D09F
:102BB000521C07EA82220A80717889B1012921D04A
:102BC00028E00A8822F4F8420A800A8842F4004287
:102BD000F1E74209C30600D1521E48EA8222EAE721
:102BE000B4F850103278214401EB021101F20C418B
:102BF00000287FF44BAF41E74209C0067FF450AF95
:102C0000521E4DE7B4F850201119327801EB021131
:102C1000A1F80C04317834F821004BF68F72104083
:102C200080F4405040EA0A0024F82100002013E517
:102C30000021A0F844104FF43F41A0F840100020BC
:102C4000704700000148FDF7F9BE00006C06002047
:102C5000B0F844007047000010B500EB42005C087B
:102C600000F5806009D000BF30F8042B01F8012B7B
:102C7000120A01F8012B641EF6D1DA0701D0008890
:102C8000087010BD0020704711B98021A0F84C10C9
:102C90000020704710B55B1C00EB42005B0800F59C
:102CA000806009D011F8012B11F8014B42EA04228F
:102CB00020F8042B5B1EF5D110BDFEE70907090EB5
:102CC000002804DB00F1E02080F80014704700F0D9
:102CD0000F0000F1E02080F8141D704702E008C8E2
:102CE000121F08C1002AFAD170477047002001E086
:102CF00001C1121F002AFBD170470000FDF7D8FA6E
:102D0000FEF7AEFBFEF7BAF9FEF7F0F9FEF744F86E
:102D1000FEF7C6F8FEF782F8DFF84080DFF840B033
:102D200008264FF47A774FF400494FF4005A44468E
:102D3000C8F810603846FEF791F966614D46C4F850
:102D400010903846FEF78AF9656154465D46CBF827
:102D500010A03846FEF782F96C61E8E700080140F0
:102D600000100140842D00080000002088010000B0
:102D700090010008442E000888010020A0250000D2
:102D8000EC2C0008139D181B08CD041AD90413015C
:102D9000191B082D041A7D0C1AA904170403090431
:102DA0001201140202021640830440572602010257
:102DB0000301031A1A0313F1011B08ED041AE904B5
:102DC0001B1502543182105324F4130A0632022ACE
:102DD000401C1C090243571125C03209041B010283
:102DE0000B13052416100105240110090104240207
:102DF00002052406170107058203081C1009048D2B
:102E0000320A1D07050102432C07058107093844D2
:102E10002A40072A8107112B0907440A3C0444125F
:102E20001614086F151B08F108411AB30C13FB1494
:102E30001B084108C11AF1101AE5041AFD041AD939
:042E40000432010057
:04000005080000ED02
:00000001FF
